:1000000025EF0EF00000000000EF00F000000000FF
:0A0010000000000000000000F3D71C
:0C001C00000000000000000000001200C6
:0A002800F9DF8A88F7DF8A981200DA
:020032001200BA
:10003400120E006E000E016E830E0024E16E0F0E90
:100044000120E26EFF0EE66EF2DFF1DF8A848A9809
:100054008A868A88E1DF83CF91F18A988A96E7DFDE
:10006400E6DF120E006E000E016E830E0024E16EB8
:0E0074000F0E0120E26EE66A91C100F012004C
:0E0082008A988A848A9691C183FFCDDF12008E
:100090007F0E01019115016E01C091F101AC03D0F9
:0C00A0008A808A9202D08A908A82120024
:1000AC008A948A96B80E01019111836EB7DF120003
:1000BC007F0E01019115006E00C091F18A948A9611
:1000CC00BF0E001600C091F1008C00C091F100C071
:0600DC0083FFA4DF120007
:1000E200F250026EF29E0500FF6A0150FE6E005051
:0800F200FD6E02BEF28E120049
:1000FA00000E01018B5D0AE38B517F0807E3000EB6
:10010A008C5D04E38C513F0801E301D04AD08BC1D6
:10011A0091F1B9DF8CC191F19133919F9133919F04
:10012A009133919FBEDF8BC191F1C3DF7EDF00C0A7
:10013A0090F17BDF00C090F18CC191F19133919FD6
:10014A009133919F9133919FACDF8BC191F1B1DFD4
:10015A00070E8C15006E00C08EF100C001F0010E72
:10016A00006E015004E000360090FF0FFBD700C07C
:10017A008EF1001C8F6F09D08F5190170FD08E51BE
:10018A0090130CD08E51901B09D08D51000AF4E0C7
:10019A008D51010AF4E08D51020AF4E090C191F107
:0401AA006BDF1200F5
:1001AE00086A080E0C6E003408360450085ED8B08B
:0E01BE0002D00826D89000360C2EF5D712007D
:1001CC007DC141F17EC142F17FC143F1020E0101BB
:1001DC007D25F66E000E7E21F76E000E7F21F86EE7
:1001EC000900F5CF04F0030E7D25F66E000E7E217E
:1001FC00F76E000E7F21F86E0900F5CF03F003C0F7
:10020C0001F0006A045000242B6F000E01202C6FAB
:10021C00040E7D25F66E000E7E21F76E000E7F21FA
:10022C00F86E0900F5CF04F0050E7D25F66E000E74
:10023C007E21F76E000E7F21F86E0900F5CF03F0DA
:10024C0003C001F0006A04500024396F000E012035
:10025C003A6F060E7D25F66E000E7E21F76E000EAF
:10026C007F21F86E0900F5CF3BF1000E3C6F80C189
:10027C0029F1000E2A6F81C144F1010E0001D66FE5
:08028C000101116B126B12005D
:100294000B6A0A6A096A00500402F4CF09F0F3CF2A
:1002A40008F001500502F4CF0BF0F3CF0AF0005030
:1002B4000502F3500926F4500A22E86A0B22015081
:1002C4000402F3500926F4500A22E86A0B2208C0FB
:1002D40000F009C001F00AC002F00BC003F01200E4
:1002E400310E0101896F010E8A6F000E006E82517A
:1002F400005C02E18151000843E22FC1E1FF30C1FB
:10030400E2FF7DC1E6FF7EC1E6FF7FC1E6FF80C15B
:10031400E6FF81C1E6FF82C1E6FF850EE66E010EAF
:10032400E66E2DC100F02EC101F0D9DE00C087F1C8
:1003340001C088F10101836B846B8651845D02E105
:100344008551835D11E287C1E9FF88C1EAFF89C154
:10035400E1FF8AC1E2FFEECFE6FF894B8A2B874B90
:10036400882B834B842BE9D78551815F8651825B2F
:1003740085517D2786517E23000E7F238023B5D7A8
:02038400120065
:10038600000E01017F5D04E37F517F0801E301D088
:1003960027D0000E7D5DD8A07D6B7D513F0802E21F
:1003A6003F0E7D6F000E7E5DD8A07E6B7E513F08AE
:1003B60002E23F0E7E6F7D517E5D06E27DC181F1D8
:1003C6007EC17DF181C17EF17D517E5D09E37FC1F4
:1003D6008BF17DC18CF180C18DF18CDE7D2BF4D744
:0203E600120003
:0A03E800000E9EBA010E006E120016
:1003F200AECF01F0ABA202D0AB98AB8801C000F047
:020402001200E6
:100404000101666B030E665D0AE266516425E16EC6
:10041400000E6521E26E200EE66E662BF3D7665160
:100424006425E16E000E6521E26EE66A6607665198
:100434006425676F000E6521686F0A0E046E63C140
:1004440000F0B3DE08C000F0300E002667C1E1FF03
:1004540068C1E2FF00C0E6FF0A0E046E63C100F04B
:10046400A4DE00C063F10050000A01E102D0660777
:04047400DED71200BD
:100478000101786B796B7A6B7B6B2C51645D02E1BF
:100488002B51635D01E2B4D164513A5D02E16351DD
:10049800395D01E2ADD12B51635D036E2C51645976
:1004A800046E03C000F004C001F00036009001366D
:1004B800003600900136080E0D257D6F000E0E21C6
:1004C8007E6F000E0F217F6F000E1021806F00508D
:1004D8007D2701507E23000E7F238023040E816F29
:1004E800000E826FFBDE310E766F010E776F76C1DC
:1004F800E9FF77C1EAFFEECF7CF17CC178F1010E0C
:100508007625E96E000E7721EA6EEECF04F0000E34
:10051800056E066E076E020E7625E96E000E7721CF
:10052800EA6EEECF03F003C001F0006A000E026E1F
:10053800036E04500026055001220650022207507F
:10054800032200500D256A6F01500E216B6F025077
:100558000F216C6F035010216D6F7CC100F00032C9
:10056800009E0032009E0032009E000E016E3BC1CC
:1005780004F03CC105F08ADE00C070F101C071F1E1
:10058800070E7C15006E04E03B5170273C51712327
:1005980070C174F171C175F12FC1E1FF30C1E2FF83
:1005A8006AC1E6FF6BC1E6FF6CC1E6FF6DC1E6FFFD
:1005B80070C1E6FF71C1E6FF6E0EE66E010EE66ED3
:1005C8002DC100F02EC101F088DD00C076F101C018
:1005D80077F101016E516A276F516B23000E6C236E
:1005E8006D236E51705F6F51715B726B736B445109
:1005F800000AD8A47ED03FC167F140C168F1666B9C
:10060800000E006E3C51005C02E13B51665D6AE2FF
:100618003DC179F13EC17AF1696B656B7851655DD1
:100628005DE26951000A49E1724B732B75516F5DA8
:1006380002E174516E5D37E273516F5D02E17251F0
:100648006E5D31E2010E726F000E736F2FC1E1FF14
:1006580030C1E2FF6AC1E6FF6BC1E6FF6CC1E6FF8D
:100668006DC1E6FF70C1E6FF71C1E6FF6E0EE66E72
:10067800010EE66E2DC100F02EC101F02EDD00C086
:1006880076F101C077F170C174F171C175F10101A2
:100698006E516A276F516B23000E6C236D236E51C8
:1006A800705F6F51715B76C1E9FF77C1EAFFEECFEA
:1006B8007BF1764B772B010E696F69517B15006EC4
:1006C80007E079C18BF167C18CF129C18DF111DD8A
:1006D800794B7A2B69376991652BA0D7674B682BC3
:1006E800662B8ED7010E79253D6F000E7A213E6F5D
:1006F8007FD03DC167F13EC168F1666B000E006EA8
:100708003C51005C02E13B51665D6CE23FC179F10E
:1007180040C17AF1696B656B7851655D5FE269513B
:10072800000A49E1724B732B75516F5D02E17451F8
:100738006E5D37E273516F5D02E172516E5D31E2B9
:10074800010E726F000E736F2FC1E1FF30C1E2FF1F
:100758006AC1E6FF6BC1E6FF6CC1E6FF6DC1E6FF4B
:1007680070C1E6FF71C1E6FF6E0EE66E010EE66E21
:100778002DC100F02EC101F0B0DC00C076F101C03F
:1007880077F170C174F171C175F101016E516A2779
:100798006F516B23000E6C236D236E51705F6F5188
:1007A800715B76C1E9FF77C1EAFFEECF7BF1764B4B
:1007B800772B010E696F69517B15006E07E067C1E1
:1007C8008BF179C18CF129C18DF193DC010E795F30
:1007D800000E7A5B69376991652B9ED7674B682B4A
:1007E800662B8CD7010E795D3F6F000E7A59406FEA
:0207F8001200ED
:1007FA0063C13DF164C13EF165C13FF166C140F19B
:02080A001200DA
:10080C0001016B6B6C6B6D6B0001D651000A0EE134
:10081C00220E01017D6F230E7E6F000E7F6F010E85
:10082C00806F816BCDDC010E0001D66F000E006E67
:10083C0001012C51005C02E12B51635D01E2E8D017
:10084C00000E3A5D02E16351395D01E2E1D02B51BA
:10085C00635D016E2CC102F0000E025601C003F064
:10086C0002C004F0033603900436033603900436BA
:10087C00080E4125006E000E4221016E000E432130
:10088C00026E000E056E0050032601500422025029
:10089C00052203C0F6FF04C0F7FF05C0F8FF0900EE
:1008AC00F5CF6BF1010E0324F66E000E0420F76EEB
:1008BC00000E0520F86E0900F5CF00F000C006F020
:1008CC00000E076E086E096E020E0324F66E000E03
:1008DC000420F76E000E0520F86E0900F5CF03F02A
:1008EC0003C001F0006A000E026E036E0650002673
:1008FC0007500122085002220950032241510024C2
:10090C00686F42510120696F435102206A6F445154
:10091C00000A40E13FC166F1656B000E006E3C5170
:10092C00005C02E13B51655D2EE23DC16CF1676BF1
:10093C00646B6B51645D24E26751000A10E168C17D
:10094C00F6FF69C1F7FF6AC1F8FF0900F5CF6DF139
:10095C00010E6827000E69236A23010E676F675129
:10096C006D15006E08E06CC18BF166C18CF129C16C
:10097C008DF17DEC00F06C2B67376791642BD9D728
:10098C00662B652BCAD76C51010F3D6F3E6B000E69
:10099C003E233ED03DC166F1656B000E006E3C51AE
:1009AC00005C02E13B51655D2EE23FC16CF1676B6F
:1009BC00646B6B51645D24E26751000A10E168C1FD
:1009CC00F6FF69C1F7FF6AC1F8FF0900F5CF6DF1B9
:1009DC00010E6827000E69236A23010E676F6751A9
:1009EC006D15006E08E066C18BF16CC18CF129C1EC
:1009FC008DF17DEC00F06C0767376791642BD9D7CC
:100A0C00662B652BCAD76C053F6F406B000E405BA5
:020A1C001200C6
:100A1E0064C17DF10101665164257E6F63C17FF172
:080A2E00010E806FA9DC12002B
:100A360001016551070801E292D02351635D006E02
:100A460024C101F0000E01560BC104F0000E056E24
:100A56001EDC00C06BF101C06CF164C191F15EEC6B
:100A660000F065C191F156EC00F0676B0B51675DC4
:100A760052E264517F0801E272D064C191F148EC00
:100A860000F065C191F156EC00F064C191F15EECA5
:100A960000F01AEC00F000C068F11AEC00F000C09B
:100AA60068F164C191F148EC00F065C191F156EC32
:100AB60000F064C191F15EEC00F06B511425F66E06
:100AC6006C511521F76E000E6CBFFF0E1621F86EE5
:100AD6000900F5CF00F000C069F16B4B6C2B001CD0
:100AE6006A6F09D06AC168F10FD069C168F10CD08C
:100AF6006951681B09D06651000AF4E06651010A83
:100B0600F4E06651020AF4E068C191F141EC00F0AC
:100B1600642B672BABD764C191F148EC00F065C13B
:100B260091F156EC00F064C191F15EEC00F0FF0E1D
:100B3600696F6A6B0ED069C168F169C191F141ECC8
:100B460000F00DD06AC168F16AC191F141EC00F084
:100B560006D06651000AEFE06651010AF3E0120082
:100B660063C18BF164C18CF1010E01018D6F7DECC7
:040B760000F0120079
:0E0B7A00ACB202D00000FCD763C1ADFF120088
:100B880001015C6B5D6B5AC103F05BC104F05AC193
:100B980005F05BC106F003C0E9FF04C0EAFFEE50B0
:100BA800200A04E15C515D1101E110D0010E5C6F77
:100BB800000E5D6F03C0E9FF04C0EAFF05C0E1FF56
:100BC80006C0E2FFEECFE6FF054A062A03C001F0A1
:100BD80004C002F0034A042A01C0E9FF02C0EAFF88
:100BE800EE50000AD8E15AC100F05BC101F01200D2
:100BF80001016251010A2EE15A51010F016E026A88
:100C0800000E5ABFFF0E0222000E021802E15E51CA
:100C180001181EE1800E5BBF7F0E006E800E005C27
:100C280002E15F515B5D14E361515F25016E026A69
:100C3800000E0222800E5BBF7F0E006E800E02182F
:100C4800005C02E101505B5D03E2010E006E2FD0F3
:100C5800006A2DD05E51010F016E026A000E022259
:100C6800000E5ABFFF0E021802E101505A191EE188
:100C7800800E5BBF7F0E006E800E005C02E15F514C
:100C88005B5D14E361515F25016E026A000E02226A
:100C9800800E5BBF7F0E006E800E0218005C02E1C2
:100CA80001505B5D03E2010E006E01D0006A120084
:0C0CB800030E0D6E0D2EFED70000120082
:100CC40001015E6B5F6B606B5E51070845E3916BDE
:100CD40048EC00F05EC191F156EC00F0916B5EECD3
:100CE40000F05D6B5D513F0812E35F515A25F66ECB
:100CF40060515B21F76E000E5C21F86E0900F5CFA0
:100D040091F141EC00F05F4B602B5D2BEBD7400E73
:100D1400916F48EC00F05EC191F156EC00F0400E8A
:100D2400916F5EEC00F0400E5D6F5D517F0812E341
:100D34005F515A25F66E60515B21F76E000E5C21FF
:100D4400F86E0900F5CF91F141EC00F05F4B602B98
:0A0D54005D2BEBD75E2BB8D7120021
:100D5E0001015F6B1351000A0EE1050E0B6F070EBA
:100D6E000C6FD50E146F340E156F000E166F200E0D
:100D7E00236F000E246F5F515A25E96E000E5B2122
:100D8E00EA6EEE5216E05F515A25E96E000E5B21B7
:100D9E00EA6EEECF63F15CC164F15DC165F15EC1D7
:100DAE0066F142DE0B51010F006E00505C275F2B87
:040DBE00E2D7120066
:100DC20001015F6B606B5AC161F1000E5ABFFF0EE9
:100DD200626F800E5A19006E800E000A005C0AE2F1
:100DE2005F4B602B5A510008616F626B000E5ABF55
:100DF200FF0E625B61C163F15BC164F15CC165F1CD
:100E020002EC02F0040E5D6F000E5E6F000E006ECB
:100E12005E51005C02E15D51000819E25D515B2503
:100E2200E16E5E515C21E26E010E5D5D006E000EB0
:100E32005E59016E00505B25E96E01505C21EA6E3D
:100E4200EECFE6FF010E5D5F000E5E5BDFD75BC19A
:100E5200E1FF5CC1E2FF200EE66E5F5160111AE015
:100E62005D6B5E6B5D515B25E96E5E515C21EA6EE6
:100E7200EE50200A03E15D4B5E2BF4D7010E5D5F5D
:100E8200000E5E5B5D515B25E16E5E515C21E26EA0
:060E92002D0EE66E1200B9
:0A0E9800000EACB2010E006E120055
:100EA20001015D6B5AC1E9FF5BC1EAFFEECF5CF164
:100EB2005C51000A0EE05CC163F15EDE01015D2B54
:100EC2005D515A25E96E000E5B21EA6EEECF5CF1B0
:040ED200EFD7120044
:100ED600050E0101496F1E0E4A6F020E4B6F090E79
:100EE6004C6F790E4D6F1E0E4E6F020E4F6F090E30
:100EF600506F400E456F200E466F020E476F020E72
:100F0600486F050E636F1E0E646F020E656F090E45
:100F1600666F82DD4DC163F14EC164F14FC165F16B
:100F260050C166F179DD45C163F146C164F118DE51
:020F36001200A7
:100F3800000E01015D5D02E1800E5C5D01E33AD0C7
:100F4800000E5F5D02E1400E5E5D01E333D0606B31
:100F5800616B5CC163F15DC164F15EC165F15FC144
:100F680066F147DC60515A25E96E61515B21EA6EF2
:100F7800EE5220E01151121111E060515A25E96E2C
:100F880061515B21EA6EEECF63F1000E646F000ED3
:100F9800646F3CEC02F0604B612B0BD060515A251A
:100FA800E96E61515B21EA6EEECF63F12BDC604B99
:060FB800612BD8D71200E6
:100FBE005BC17DF101015D515B257E6F5AC17FF1F1
:080FCE00806BC3EC01F012007E
:100FD6000101606B616B5E5344E05E51FF0AD8A469
:100FE6005E07F4EC01F00050000A01E1FAD7F9ECD3
:100FF60001F000C05FF1010160515A25E16E000E5B
:101006005B21E26E00C0E6FF602B61515C25E96E54
:10101600000E5D21EA6EEE505F1902E1612B09D0E8
:10102600616B5CC1E9FF5DC1EAFFEE505F19D8B4A0
:10103600612B61515C25E96E000E5D21EA6EEE5072
:10104600000A0EE16151605D006E016A000E015AF0
:1010560000505A25E16E01505B21E26EE66A06D029
:0E106600BAD75AC1E1FF5BC1E2FFE66A120091
:101074008A908A820101576B5751070810E357C1C0
:1010840091F156EC00F0566B56513F0806E355C1FA
:1010940091F141EC00F0562BF7D7572BEDD78A92FC
:1010A4008A80576B5751070810E357C191F156ECEA
:1010B40000F0566B56513F0806E355C191F141ECDF
:0C10C40000F0562BF7D7572BEDD7120089
:1010D0000101136B116B126B939A939893949396EF
:1010E000939093928A9A120E006E000E016E830EF8
:1010F0000024E16E0F0E0120E26EE66A8A948A9661
:101100008A908A828A8A3F0E836E14EC00F0C00EA9
:10111000836E14EC00F08A808A923F0E836E14EC8A
:0C11200000F0C00E836E14EC00F0120012
:10112C00D50E01015A6F280E5B6F000E5C6FC4DD8B
:10113C00750E5A6F000E5B6F040E5C6F000E5D6FC8
:10114C00150E5E6F000E5F6FF1DE850E5A6F000E8E
:10115C005B6F040E5C6F000E5D6F1F0E5E6F000EFA
:10116C005F6FE4DE600E5A6F000E5B6F040E5C6FF7
:10117C00000E5D6F2A0E5E6F000E5F6FD7DE430EA2
:10118C005A6F000E5B6F040E5C6F000E5D6F340EB9
:10119C005E6F000E5F6FCADE080E0B6E9D0E0C6E3E
:1011AC00050E0D6E0D2EFED70C2EFCD70B2EFAD77E
:0611BC000000000012001B
:1011C2000900F5CFE6FF0006FBE10106F9E1120096
:1011D2004AC1F3F04EC1F7F045C1FAF046C1FBF047
:0A11E20047C1FCF048C1FDF0120007
:1011EC007A0E0101256F0B0E266F630E276F010E11
:1011FC00286FF20E1F6F030E206F000E216F000E72
:10120C00226FE80E176F030E186F000E196F000E89
:10121C001A6F980E1B6F0E0E1C6F000E1D6F000EBA
:10122C001E6FAC8A900EAB6E948E949C9EAA03D0CB
:08123C00AECF00F0FBD7120059
:10124400FF0E0101076FFF0E086FFF0E096FFF0EFF
:101254000A6FC26A0001D71D006E0050C116070E46
:08126400C012C08EC28012000E
:10126C0015DE0050010A01E0FBD755C163F17FDCAC
:02127C0012005E
:10127E00F4EC01F00050000A01E1FAD755C15AF121
:10128E0056C15BF15D0E01015C6F000E5D6FFF0ECE
:06129E005E6F9ADE1200F3
:1012A4000001DA51000A0BE1300E0101636F4A0EAE
:1012B400646F656B010E666F1BEC05F086D0000150
:1012C400DA51010A0BE1310E0101636F4A0E646FBA
:1012D400656B010E666F1BEC05F077D00001DA51E7
:1012E400020A0BE1320E0101636F4A0E646F656BF3
:1012F400010E666F1BEC05F068D00001DA51030A99
:101304000BE1330E0101636F4A0E646F656B010ECE
:10131400666F1BEC05F059D00001DA51040A0BE1A9
:10132400340E0101636F4A0E646F656B010E666FC4
:101334001BEC05F04AD00001DA51050A0BE1350E29
:101344000101636F4A0E646F656B010E666F1BECDF
:1013540005F03BD00001DA51060A0BE1360E01011B
:10136400636F4A0E646F656B010E666F1BEC05F0CC
:101374002CD00001DA51070A0BE1370E0101636F2B
:101384004A0E646F656B010E666F1BEC05F01DD091
:101394000001DA51080A0BE1380E0101636F4A0EAD
:1013A400646F656B010E666F1BEC05F00ED00001D7
:1013B400DA51090A0AE1390E0101636F4A0E646FBA
:0C13C400656B010E666F1BEC05F012005B
:1013D000016A020E015C19E2D90EE96E000EEA6E96
:1013E0000150E926D8B0EA2AEE50030A0CE10001C8
:1013F000D96BDA6B0150000A03E1010E006E06D0D2
:0E140000020E006E03D0012AE4D7006A12002B
:10140E00D50E01015A6F300E5B6F000E5C6F53DC10
:02141E001200BA
:101420000001D951000A0BE1300E0101636F320E49
:10143000646F656B010E666F1BEC05F086D00001D2
:10144000D951010A0BE1310E0101636F320E646F55
:10145000656B010E666F1BEC05F077D00001D9516A
:10146000020A0BE1320E0101636F320E646F656B8D
:10147000010E666F1BEC05F068D00001D951030A1C
:101480000BE1330E0101636F320E646F656B010E69
:10149000666F1BEC05F059D00001D951040A0BE12D
:1014A000340E0101636F320E646F656B010E666F5F
:1014B0001BEC05F04AD00001D951050A0BE1350EAD
:1014C0000101636F320E646F656B010E666F1BEC7A
:1014D00005F03BD00001D951060A0BE1360E01019F
:1014E000636F320E646F656B010E666F1BEC05F067
:1014F0002CD00001D951070A0BE1370E0101636FAF
:10150000320E646F656B010E666F1BEC05F01DD02B
:101510000001D951080A0BE1380E0101636F320E48
:10152000646F656B010E666F1BEC05F00ED0000159
:10153000D951090A0AE1390E0101636F320E646F55
:0C154000656B010E666F1BEC05F01200DD
:10154C00040E01014A25006E016A000E012200C042
:10155C0055F1200E576F48C156F10001D851020ABF
:10156C00D8A4C7D049C15AF14AC15BF14BC15CF157
:10157C004CC15DF11EDD800E5619006E800E000A06
:10158C00005C03E256510008566F800E000A006E94
:10159C00800E4719005C0FE25751555D06E256511B
:1015AC004A25006E00C04AF105D056514A5D006EC6
:1015BC0000C04AF19ED0800E4519006E800E400A84
:1015CC00005CD8B096D0800E000A006E800E4819D0
:1015DC00005C3FE2800E006E800E46BF7F0E005C0A
:1015EC0002E14651555D1DE256514A25016E026AD3
:1015FC00000E56BFFF0E0222800E0218006E800EE7
:10160C00005C02E1400E015C06E256514A25006E78
:10161C0000C04AF105D04C513F08006E00C04AF1A1
:10162C0018D056514A5D016E026A000E56BFFF0E6D
:10163C00025A800E006E800E0218005C02E101500E
:10164C00000806E256514A5D006E00C04AF101D016
:10165C004A6B800E4819006E800E000A005C31E265
:10166C00800E46BF7F0E006E800E005C02E155516D
:10167C00465D19E256514A5D016E026A000E56BF74
:10168C00FF0E025A800E006E800E0218005C02E102
:10169C000150000806E256514A5D006E00C04AF146
:1016AC0001D04A6B0ED0400E4A5D06E256514A25D7
:1016BC00006E00C04AF105D04C513F08006E00C0CE
:1016CC004AF14851000A15E1800E46BF7F0E006EAC
:1016DC00800E005C02E15551465D06E2030E4A5D48
:1016EC00006E00C04AF105D0030E4A25006E00C002
:0416FC004AF112009D
:10170000300E0001FE5D006E00C045F1300EFF5D41
:10171000006E00C046F1300E0101005D0001D96F7E
:10172000300E0101015D0001DA6F300E0101025D32
:10173000006E00C04AF1300E035D006E00C04EF135
:02174000120095
:10174200D9C05AF1550E01015B6F010E5C6FE1ECDD
:1017520006F0550E5A6F010E5B6FC4EC05F000C027
:101762005AF101C05BF1320E5C6F5D6B010E5E6F70
:10177200AFEC06F0DAC05AF1550E5B6F010E5C6FEA
:10178200E1EC06F0550E5A6F010E5B6FC4EC05F0EA
:1017920000C05AF101C05BF14A0E5C6F5D6B010E35
:0817A2005E6FAFEC06F01200CF
:1017AA00C26A0001D71D006E0050C116070EC01292
:1017BA00C08E55C100F000360090003600900050EF
:1017CA00C212C2805CEC06F0C282C2A201D0FDD76E
:1017DA00C4CF01F0006AC3500012000E0112C29079
:0217EA001200EB
:1017EC004CEC07F00050010A01E0FAD755C15AF150
:0A17FC0056C15BF151EC07F012003A
:10180600D50E01015A6F2C0E5B6F000E5C6F62ECF9
:1018160006F0DB0E5A6F000E5B6F230E5C6F040E34
:101826005D6F010E5E6FAFEC06F0E60E5A6F000EAE
:101836005B6F200E5C6F060E5D6F010E5E6FAFEC88
:0418460006F0120096
:10184A00050E0101556F566B566B060E565D0FE27B
:10185A0055C17DF1050E55257E6F3F0E7F6F010E36
:10186A00806FC3EC01F00A0E5527562BEED71200F3
:10187A00300E010145250001FE6F300E010146259B
:10188A000001FF6F300ED9250101006F300E0001F3
:10189A00DA250101016F300E4A25026F300E4E25FE
:0E18AA00036F4F0E046F4B0E056F066B12009E
:1018B8000001D851020AD8A401D145C18BF146C113
:1018C8008CF101018D6B7DEC00F047514525006ED0
:1018D80000C045F148514625006E00C046F1800E13
:1018E8004519006E800E030A005C18E20001DA2B2D
:1018F80049C15AF14AC15BF14BC15CF14CC15DF180
:10190800DFEC07F04DC15AF14EC15BF14FC15CF1FC
:1019180050C15DF1DFEC07F06BEC07F0800E7D0A3B
:10192800006E800E4519005C18E20001D92B49C1F0
:101938005AF14AC15BF14BC15CF14CC15DF1DFEC7E
:1019480007F04DC15AF14EC15BF14FC15CF150C176
:101958005DF1DFEC07F06BEC07F0800E000A006E1B
:10196800800E4619005C08E2800E4619006E800E53
:101978003F0A005C01E205D048510008006E00C033
:1019880048F1556B020E555DD8B098D0040E006E24
:101998005A0EE16E010EE26E450EE96E010EEA6E18
:1019A800EECFE6FF0006FCE155C100F0000E016E27
:1019B800003600900136003600900136490E0024AA
:1019C800E96E010E0120EA6E040E006E5E0EE16EF5
:1019D800010EE26EEECFE6FF0006FCE155C162F1B2
:1019E800FCEC05F00052D8B467D047510008006EEF
:1019F80000C047F155C100F0000E016E003600909E
:101A08000136003600900136490E0026010E0122EB
:101A1800010E0024E96E000E0120EA6E030E002478
:101A2800D96E000E0120DA6EDE50EE24006E4651AB
:101A3800005C016E01C056F1000E015C05E3020E68
:101A4800565D02E2030E486F020E565D05E3040E72
:101A5800565D02E2020E486F040E565D04E3060E60
:101A6800565DD8A0486B060E565D05E3080E565D18
:101A780002E2FE0E486F080E565D05E3090E565D3C
:101A880002E2FD0E486F800E000A006E800E4719B4
:101A9800005C09E2800E4519006E800E000A005CA9
:101AA800D8A0456B09D0800E7F0A006E800E4519BC
:0E1AB800005C02E27F0E456F552B64D71200D2
:101AC60001015551000A6CE156C100F0000E016E8D
:101AD600003600900136003600900136490E002689
:101AE600010E0122010E0024E96E000E0120EA6EAD
:101AF600EECF03F0030E0024D96E000E0120DA6E3D
:101B0600DE503F08016E026A000E025A800E006E19
:101B1600800E0218005C02E10150035C20E356C10E
:101B260000F0000E016E003600900136003600907F
:101B36000136490E0026010E0122010E0024E16E37
:101B4600000E0120E26E030E0024D96E000E012065
:101B5600DA6EDE503F08006E00C0E6FF21D056C1A7
:101B660000F0000E016E003600900136003600903F
:101B76000136490E0026010E0122010E0024026ED6
:101B8600000E0120036E02C0E9FF03C0EAFF020E49
:101B9600EE24006E02C0E1FF03C0E2FF00C0E6FFD4
:101BA6005551010A4EE156C100F0000E016E003695
:101BB60000900136003600900136490E0026010ECF
:101BC6000122010E0024E96E000E0120EA6EEE509D
:101BD600000816E356C100F0000E016E00360090B4
:101BE6000136003600900136490E0026010E01220C
:101BF600010E0024E16E000E0120E26EE66A21D09D
:101C060056C100F0000E016E003600900136003617
:101C160000900136490E0026010E0122010E002415
:101C2600026E000E0120036E02C0E9FF03C0EAFF48
:101C3600020EEE5C006E02C0E1FF03C0E2FF00C0D0
:041C4600E6FF1200A3
:101C4A00C9EC1BF00101526B536B330E546F826A5D
:101C5A009480948268EC08F0556B3AEC08F0B886E8
:101C6A00B06A330EAF6EAC84F6EC08F0820E0C6EDE
:101C7A00DD0E0D6E0D2EFED70C2EFCD700000000D7
:101C8A0022EC09F096EC08F038D3B8DD0101556B67
:101C9A0087DD00C0B4F001C0B5F0000E026E01503D
:101CAA00025C02E1005064081EE3A80E01015A6FAB
:101CBA00000E5B6F230E5C6F040E5D6F5E6BAFEC04
:101CCA0006F0010E0001B36F030E0B6E8A0E0C6E46
:101CDA00550E0D6E0D2EFED70C2EFCD70B2EFAD7F5
:101CEA000000000025D0020EB55D02E1580EB45D79
:101CFA001EE3920E01015A6F000E5B6F200E5C6F9D
:101D0A00060E5D6F5E6BAFEC06F0020E0001B36F5C
:101D1A00030E0B6E8A0E0C6E550E0D6E0D2EFED72F
:101D2A000C2EFCD70B2EFAD70000000001D0AED73C
:101D3A000101556B3AEC08F0EDD26BEC07F080DD4F
:101D4A000101556B2DDD00C0B4F001C0B5F0D851CA
:101D5A000208D8A0D86B020EB55D02E1580EB45D38
:101D6A001AE34DC15AF1020E01014E5D5B6F4FC17C
:101D7A005CF150C15DF1DFEC07F0556B010E566F57
:101D8A009DDE4DC163F14EC164F14FC165F150C191
:101D9A0066F10FEC05F0000E006E0001B551005C13
:101DAA0002E1B45164081BE34DC15AF1020E01016C
:101DBA004E255B6F4FC15CF150C15DF1DFEC07F05E
:101DCA00010E556F010E566F79DE4DC163F14EC19A
:101DDA0064F14FC165F150C166F10FEC05F067DDA2
:101DEA0045C163F146C164F1B3EC05F0A6EC0AF013
:101DFA0049C163F14AC164F14BC165F14CC166F155
:101E0A000FEC05F010EC0AF052EC09F0E8EC09F0DE
:101E1A0000C051F10050010A22E107EC0AF09E0EBF
:101E2A005A6F000E5B6F2B0E5C6F040E5D6F010E16
:101E3A005E6FAFEC06F0080E0B6E9D0E0C6E050E73
:101E4A000D6E0D2EFED70C2EFCD70B2EFAD70000E6
:101E5A000000556B3AEC08F00001B36B29D0010180
:101E6A005151020A22E107EC0AF0B60E5A6F000E2F
:101E7A005B6F240E5C6F040E5D6F010E5E6FAFEC3C
:101E8A0006F0080E0B6E9D0E0C6E050E0D6E0D2ED5
:101E9A00FED70C2EFCD70B2EFAD700000000556B8C
:101EAA003AEC08F00001B36B03D00001D82B48D7F5
:101EBA0031D26BEC07F0C4DCCC0E5A6F000E5B6FAC
:101ECA005C6B5D6B010E5E6FAFEC06F0F4EC01F03B
:101EDA000050000A07E1310E546F320E636FBDECF9
:101EEA0005F004D0F9EC01F000C054F1010154519D
:101EFA00320A18E1D10E5A6F000E5B6F5C6B5D6B94
:101F0A00010E5E6FAFEC06F0C90E5A6F000E5B6FE2
:101F1A00730E5C6F5D6B010E5E6FAFEC06F0020E26
:101F2A00526F16D0C10E5A6F000E5B6F5C6B5D6B01
:101F3A00010E5E6FAFEC06F0C60E5A6F000E5B6FB5
:101F4A005C6B5D6B010E5E6FAFEC06F0010E526FBB
:101F5A005251010AD8A4FED00101556B21DC00C000
:101F6A00B4F001C0B5F0D8510208D8A0D86B020E5F
:101F7A00B55D02E1580EB45D19E349C15AF1020E8A
:101F8A0001014A5D5B6F4BC15CF14CC15DF1DFEC55
:101F9A0007F0556B566B92DD49C163F14AC164F192
:101FAA004BC165F14CC166F10FEC05F0000E006EF5
:101FBA000001B551005C02E1B45164081AE349C159
:101FCA005AF1020E01014A255B6F4BC15CF14CC10B
:101FDA005DF1DFEC07F0010E556F566B6FDD49C1FD
:101FEA0063F14AC164F14BC165F14CC166F10FEC72
:101FFA0005F0F4EC01F00050000A01E1FAD7F9EC1F
:10200A0001F00050310A1BE14DC15AF1020E0101E3
:10201A004E5D5B6F4FC15CF150C15DF1DFEC07F0C3
:10202A00556B010E566F4ADD4DC163F14EC164F125
:10203A004FC165F150C166F10FEC05F020D0F9EC03
:10204A0001F00050320A1BE14DC15AF1020E0101A2
:10205A004E255B6F4FC15CF150C15DF1DFEC07F0BB
:10206A00010E556F010E566F29DD4DC163F14EC148
:10207A0064F14FC165F150C166F10FEC05F017DC50
:10208A0045C163F146C164F1B3EC05F010EC0AF006
:10209A0052EC09F03DEC0CF0FE0E556F000E566F37
:1020AA00F6EC0BF04CEC07F00050010A01E0FAD70D
:1020BA00E8EC09F000C051F10050010A22E107ECF6
:1020CA000AF0210E5A6F000E5B6F2B0E5C6F040E26
:1020DA005D6F010E5E6FAFEC06F0080E0B6E9D0E83
:1020EA000C6E050E0D6E0D2EFED70C2EFCD70B2E88
:1020FA00FAD700000000556B3AEC08F00001B36B08
:10210A0029D001015151020A22E107EC0AF02C0EF2
:10211A005A6F000E5B6F240E5C6F040E5D6F010E2A
:10212A005E6FAFEC06F0080E0B6E9D0E0C6E050E80
:10213A000D6E0D2EFED70C2EFCD70B2EFAD70000F3
:10214A000000556B3AEC08F00001B36B03D00001B4
:10215A00D82B02D701015251020AD8A4CDD00101CD
:10216A00556BD5EC0BF000C0B4F001C0B5F0E9EC4A
:10217A0008F0020EB55D02E1580EB45D04E3310EBB
:10218A000101536F10D0000E006E0001B551005CC2
:10219A0002E1B451640804E3320E0101536F03D023
:1021AA000101300E536F53C155F136EC09F0FE0EA2
:1021BA000101556F000E566F3FEC09F080EC0BF0F1
:1021CA000001FA510101451906E10001FB51010123
:1021DA00461901E107D0FAC08BF1FBC08CF18D6B77
:1021EA007DEC00F00001F35101014A190AE049C1EE
:1021FA005AF1F3C05BF14BC15CF14CC15DF1DFEC0C
:10220A0007F00001F75101014E190AE04DC15AF1D8
:10221A00F7C05BF14FC15CF150C15DF1DFEC07F033
:10222A00A1EC0BF049C163F14AC164F14BC165F1FC
:10223A004CC166F10FEC05F04DC163F14EC164F17A
:10224A004FC165F150C166F10FEC05F045C163F16C
:10225A0046C164F1B3EC05F0E8EC09F000C051F1B5
:10226A000050010A22E107EC0AF0150E5A6F000E1F
:10227A005B6F240E5C6F040E5D6F010E5E6FAFEC38
:10228A0006F0080E0B6E9D0E0C6E050E0D6E0D2ED1
:10229A00FED70C2EFCD70B2EFAD700000000556B88
:1022AA003AEC08F00001B36B27D001015151020A40
:1022BA0022E107EC0AF0380E5A6F000E5B6F2B0E04
:1022CA005C6F040E5D6F010E5E6FAFEC06F0080ED8
:1022DA000B6E9D0E0C6E050E0D6E0D2EFED70C2E7E
:1022EA00FCD70B2EFAD700000000556B3AEC08F029
:1022FA000001B36B01D033D70DD00001B351000AEE
:10230A00D8B4C3D4B351010AD8B417D5B351020A09
:08231A00D8B4CFD5B9D4FFD728
:1037920010EE15F0DD0E006E010E016EB50EF66E26
:0E37A200360EF76E000EF86EE1EC08F0120025
:10232200000020007F000B000188010001930100E2
:10233200039E010007A9010005B4010009BF0100C5
:1023420006D5010001E0010003EB010002F60100E5
:1023520005010200060C020002170200022202001E
:10236200022D02000338020004430200044E020060
:102372000459020004640200056F0200047A02009C
:102382000485020004900200049B020004A60200DD
:1023920002B1020002BC020006C7020006D202001D
:1023A20006DD020004E8020007F3020006FE020056
:1023B2000509030006140300061F0300052A030093
:1023C2000535030006400300064B030003560300D5
:1023D20003610300056C0300047703000782030016
:1023E200068D03000798030005A3030007AE030050
:1023F20005B9030005C4030005CF030006DA030094
:1024020006E5030007F0030004FB030005060400D1
:1024120004110400021C0400032704000232040019
:10242200053D04000548040003530400045E040053
:102432000469040003740400047F0400048A040095
:102442000395040004A0040004AB040001B60400D8
:1024520002C1040004CC040001D7040007E2040016
:1024620004ED040004F8040004030500040E050052
:102472000319050003240500022F0500043A050094
:102482000545050007500500035B050005660500CC
:1024920003710500037C0500028705000392050015
:1024A200069D050002A805000000000000000000D3
:1024B200000000000001010101010001000000050F
:1024C200050500000000000000000024247E143FE7
:1024D200121200000000041E05060C140F04040072
:1024E200000000460029002900D60028012801C466
:1024F2000000000000000006090916091926000064
:1025020000010101000000000000000004020101BE
:1025120001010101020400000102020202020201A1
:102522000004150E15040000000000000000000861
:10253200083E08080000000000000000000002023F
:102542000100000000000000030000000000000085
:102552000000000002020000000404020202020263
:10256200010100000006090909090906000000002E
:102572000406040404040E00000000070808040214
:10258200010F000000000708080608080700000005
:1025920000080C0A091F0808000000000F010107CB
:1025A20008080700000000060101070909060000EB
:1025B20000000F08040402020100000000060909DD
:1025C20006090906000000000609090E08080600AF
:1025D20000000000000202000202000000000000F1
:1025E2000202000202010000000000201C021C2066
:1025F200000000000000003F003F0000000000005B
:1026020000021C201C02000000000708080402004F
:1026120002000000001C2259555539021C0000001E
:102622000C0C12123F2121000000000709090F11B2
:10263200110F000000001C22010101221C000000F9
:10264200000F11212121110F000000001F01010FB5
:1026520001011F000000001F01010F010101000024
:1026620000001C22013921223C000000002121210E
:102672003F2121210000000007020202020207009E
:102682000000000604040404040300000000110911
:102692000503050911000000000101010101010FFC
:1026A20000000000636355554949410000000021C4
:1026B200232529312121000000001C224141412211
:1026C2001C000000000F1111110F01010000000099
:1026D2001C22414141221C106000000F11110F0504
:1026E2000911000000001E01010E10100F00000071
:1026F200001F04040404040400000000212121211D
:1027020021211E0000000021212112120C0C0000C8
:1027120000004949555555222200000000090906CA
:102722000606090900000000110A0A040404040054
:102732000000000F08040202010F00000003010163
:10274200010101010101030001010202020202046E
:102752000400000302020202020202020300000459
:102762000A1100000000000000000000000000004C
:1027720000001F0002040000000000000000000032
:10278200000006080E090E000000010101070909F8
:102792000907000000000000060101010600000018
:1027A2000808080E0909090E0000000000000609C9
:1027B2000F010E00000006010107010101010000E6
:1027C200000000000E0909090E08060001010107B8
:1027D20009090909000000000100010101010100CD
:1027E20000000002000302020202020100010101D4
:1027F20009050305090000000101010101010101B0
:10280200000000000000374949494900000000006B
:10281200000709090909000000000000060909096A
:102822000600000000000007090909070101000075
:1028320000000E0909090E08080000000005030146
:10284200010100000000000007010204070000006F
:10285200000001030101010200000000000009095B
:1028620009090E000000000000110A0A0A04000013
:102872000000000049495536220000000000000512
:1028820002020205000000000000110A0A0A040404
:102892000200000000070402010700000004020217
:1028A2000202010202020400020202020202020207
:1028B20002020001020202020402020201000000FE
:1028C20000002619000000000000000303030303B8
:0328D20000000003
:1028D50000000000000000000000000000000000F3
:1028E50000000000000000000000000000000000E3
:1028F5000000000000000000003C1C0C0C0C0CFC4F
:10290500FCFC0C0C0C0C1C3C00040CFCFCFC0C0C26
:102915000C0C0C8C0C1C3C00E0F0381C0C0C0C0C4A
:102925001C3870F8000000000000000000000000E6
:102935000000000000000000000000000000000092
:102945000000000000000000000000000000000082
:102955000000000000000000000000000000000072
:102965000000000000000000000000000000000062
:10297500000000000000000000000000000080FFD3
:10298500FFFF800000000000000080FFFFFF838341
:102995008383838780C0E0003F7FE0C080808080A4
:1029A50080C0F0780000000000000000000000007A
:1029B5000000000000000000000000000000000012
:1029C5000000000000000000000000000000000002
:1029D50000000000000000000000000000000000F2
:1029E50000000000000000000000000000000000E2
:1029F50000000000000000000000000000010101CF
:102A050001010101000000000001010101010101B6
:102A150001010101010101000000000101010101A5
:102A2500010100000000000000000000000000009F
:102A35000000000000000000000000000000000091
:102A45000000000000000000000000000000000081
:102A55000000000000000000000000000000000071
:102A65000000000000000000000000000000000061
:102CF50000000000F0F8F8F818181818F8F8F000B7
:102D05000080C0C0C0C0C0C0C0C0C0C080000080BE
:102D1500C0C0C0C0C0C0C0C0C0C080000080C0C0AE
:102D2500C0C0C0C0C0C0C0C080000000000000001E
:102D3500000000000000000000000000000000008E
:102D4500000000000000000000000000000000007E
:102D5500000000000000000000000000000000006E
:102D6500000000000000000000000000000000005E
:102D750000000000FFFFFFFFFFFFFF03030301004B
:102D850000FFFFFFFFF1E1C10101FFFFFF0000FFB1
:102D9500FFFFFFFFF3E30303FFFFFF0000FFFFFF5C
:102DA500FFF1E1C10101FFFFFF000000000000008D
:102DB500000000000000000000000000000000000E
:102DC50000000000000000000000000000000000FE
:102DD50000000000000000000000000000000000EE
:102DE50000000000000000000000000000000000DE
:102DF50000000000030707070707030000000000A5
:102E0500000307070707070707070707030000036E
:102E150007070707070700000707070000E3E7E7BD
:102E2500E7E7E7E7E7FFFFFFFF000000000000001E
:102E3500000000000000000000000000000000008D
:102E4500000000000000000000000000000000007D
:102E5500000000000000000000000000000000006D
:102E6500000000000000000000000000000000005D
:102E7500000000000000000000000000000000004D
:102E8500000000000000000000000000000000003D
:102E9500000000000000000000000000000001012B
:102EA5000101010101010101000000000000000015
:102EB500000000000000000000000000000000000D
:102EC50000000000000000000000000000000000FD
:102ED50000000000000000000000000000000000ED
:102EE50000000000000000000000000000000000DD
:103165000000000000E0E01818989880800000E05A
:10317500E098989898E0E00000F8F860608080603A
:1031850060F8F80000F8F89898989818180000006A
:10319500000000E0E018181818E0E00000787880DA
:1031A500800000808078780000F8F8989898981842
:1031B500180000F8F89898989860600000000000E2
:1031C50000000000000000000000000000000000FA
:1031D50000000000000000000000000000000000EA
:1031E5000000000000070718181919070700001F3D
:1031F5001F010101011F1F00001F1F000001010029
:10320500001F1F00001F1F191919191818000000A9
:103215000000000707181818180707000000000726
:103225000718180707000000001F1F19191919189A
:103235001800001F1F0101070718180000000000F3
:103245000000000000000000000000000000000079
:103255000000000000000000000000000000000069
:103265000000000000000000000000000000000059
:103275000000000000000000000000000000000049
:1034D500000000000000005F000000070007001466
:1034E5007F147F14242A7F2A122313086462364925
:1034F5005522500005030000001C22410000412216
:103505001C00082A1C2A0808083E0808005030003C
:1035150000080808080800303000002010080402E0
:103525003E5149453E00427F400042615149462196
:1035350041454B311814127F1027454545393C4A02
:103545004949300171090503364949493606494952
:10355500291E0036360000005636000000081422E9
:1035650041141414141441221408000201510906CF
:10357500324979413E7E1111117E7F494949363ED6
:10358500414141227F4141221C7F494949417F09EF
:103595000901013E414151327F0808087F00417F02
:1035A50041002040413F017F081422417F404040B7
:1035B500407F0204027F7F0408107F3E4141413E67
:1035C5007F090909063E4151215E7F0919294646B1
:1035D5004949493101017F01013F4040403F1F20DA
:1035E50040201F7F2018207F63140814630304788C
:1035F5000403615149454300007F4141020408101D
:103605002041417F00000402010204404040404047
:10361500000102040020545454787F48444438384B
:1036250044444420384444487F3854545418087E50
:10363500090102081454543C7F0804047800447DB1
:1036450040002040443D00007F10284400417F4059
:10365500007C041804787C08040478384444443811
:103665007C14141408081414187C7C0804040848F5
:1036750054545420043F4440203C4040207C1C20AE
:1036850040201C3C4030403C44281028440C5050FD
:10369500503C4464544C44000836410000007F000F
:1036A50000004136080008082A1C08081C2A0808DA
:0C36B500596F75204C6F736520212100B7
:0B36C100596F752057494E2021210051
:0C36CC00596F75204C6F736520212100A0
:0B36D800596F752057494E202121003A
:1036E30054616C6C657220646520536973742E2079
:0A36F300456D62656269646F730043
:0336FD004F4B0030
:1037000050726F662E2045726E6573746F20526919
:05371000766572610006
:10371500416E6472657920536571756569726100E2
:0D372500457269636B20517569726F730006
:0C37320054776F20706C61796572730031
:0A373E0050432057494E202121007E
:0B3748004F6E6520706C6179657200A7
:013753000075
:02375400000073
:0B375600506C617965722057494E00ED
:053761002020202000E3
:03376600503100DF
:03376900503200DB
:05376C005761697400C3
:053771002020202000D3
:013776000052
:013777003021
:013778000050
:0237790000004E
:0B377B004F6E6520706C617965720074
:0C37860054776F20706C617965727300DD
:020000040030CA
:0E000000210A3F1EFF8381FF0FC00FE00F405B
:00000001FF
